{"abi":[{"inputs":[{"internalType":"address","name":"_administrator","type":"address"}],"stateMutability":"nonpayable","type":"constructor"},{"inputs":[{"internalType":"address payable","name":"recipient","type":"address"},{"internalType":"uint256","name":"numberOfLikes","type":"uint256"},{"internalType":"uint256","name":"rewardPerLike","type":"uint256"}],"name":"sendRewards","outputs":[],"stateMutability":"nonpayable","type":"function"}],"devdoc":{"kind":"dev","methods":{},"version":1},"evm":{"assembly":"    /* \"LikeRewardManager.sol\":57:1008  contract LikeRewardManager {... */\n  mstore(0x40, 0x80)\n    /* \"LikeRewardManager.sol\":180:263  constructor(address _administrator) {... */\n  callvalue\n  dup1\n  iszero\n  tag_1\n  jumpi\n  0x00\n  dup1\n  revert\ntag_1:\n  pop\n  mload(0x40)\n  sub(codesize, bytecodeSize)\n  dup1\n  bytecodeSize\n  dup4\n  codecopy\n  dup2\n  dup2\n  add\n  0x40\n  mstore\n  dup2\n  add\n  swap1\n  tag_2\n  swap2\n  swap1\n  tag_3\n  jump\t// in\ntag_2:\n    /* \"LikeRewardManager.sol\":242:256  _administrator */\n  dup1\n    /* \"LikeRewardManager.sol\":226:239  administrator */\n  0x00\n  dup1\n    /* \"LikeRewardManager.sol\":226:256  administrator = _administrator */\n  0x0100\n  exp\n  dup2\n  sload\n  dup2\n  0xffffffffffffffffffffffffffffffffffffffff\n  mul\n  not\n  and\n  swap1\n  dup4\n  0xffffffffffffffffffffffffffffffffffffffff\n  and\n  mul\n  or\n  swap1\n  sstore\n  pop\n    /* \"LikeRewardManager.sol\":180:263  constructor(address _administrator) {... */\n  pop\n    /* \"LikeRewardManager.sol\":57:1008  contract LikeRewardManager {... */\n  jump(tag_6)\n    /* \"#utility.yul\":88:205   */\ntag_8:\n    /* \"#utility.yul\":197:198   */\n  0x00\n    /* \"#utility.yul\":194:195   */\n  dup1\n    /* \"#utility.yul\":187:199   */\n  revert\n    /* \"#utility.yul\":334:460   */\ntag_10:\n    /* \"#utility.yul\":371:378   */\n  0x00\n    /* \"#utility.yul\":411:453   */\n  0xffffffffffffffffffffffffffffffffffffffff\n    /* \"#utility.yul\":404:409   */\n  dup3\n    /* \"#utility.yul\":400:454   */\n  and\n    /* \"#utility.yul\":389:454   */\n  swap1\n  pop\n    /* \"#utility.yul\":334:460   */\n  swap2\n  swap1\n  pop\n  jump\t// out\n    /* \"#utility.yul\":466:562   */\ntag_11:\n    /* \"#utility.yul\":503:510   */\n  0x00\n    /* \"#utility.yul\":532:556   */\n  tag_20\n    /* \"#utility.yul\":550:555   */\n  dup3\n    /* \"#utility.yul\":532:556   */\n  tag_10\n  jump\t// in\ntag_20:\n    /* \"#utility.yul\":521:556   */\n  swap1\n  pop\n    /* \"#utility.yul\":466:562   */\n  swap2\n  swap1\n  pop\n  jump\t// out\n    /* \"#utility.yul\":568:690   */\ntag_12:\n    /* \"#utility.yul\":641:665   */\n  tag_22\n    /* \"#utility.yul\":659:664   */\n  dup2\n    /* \"#utility.yul\":641:665   */\n  tag_11\n  jump\t// in\ntag_22:\n    /* \"#utility.yul\":634:639   */\n  dup2\n    /* \"#utility.yul\":631:666   */\n  eq\n    /* \"#utility.yul\":621:684   */\n  tag_23\n  jumpi\n    /* \"#utility.yul\":680:681   */\n  0x00\n    /* \"#utility.yul\":677:678   */\n  dup1\n    /* \"#utility.yul\":670:682   */\n  revert\n    /* \"#utility.yul\":621:684   */\ntag_23:\n    /* \"#utility.yul\":568:690   */\n  pop\n  jump\t// out\n    /* \"#utility.yul\":696:839   */\ntag_13:\n    /* \"#utility.yul\":753:758   */\n  0x00\n    /* \"#utility.yul\":784:790   */\n  dup2\n    /* \"#utility.yul\":778:791   */\n  mload\n    /* \"#utility.yul\":769:791   */\n  swap1\n  pop\n    /* \"#utility.yul\":800:833   */\n  tag_25\n    /* \"#utility.yul\":827:832   */\n  dup2\n    /* \"#utility.yul\":800:833   */\n  tag_12\n  jump\t// in\ntag_25:\n    /* \"#utility.yul\":696:839   */\n  swap3\n  swap2\n  pop\n  pop\n  jump\t// out\n    /* \"#utility.yul\":845:1196   */\ntag_3:\n    /* \"#utility.yul\":915:921   */\n  0x00\n    /* \"#utility.yul\":964:966   */\n  0x20\n    /* \"#utility.yul\":952:961   */\n  dup3\n    /* \"#utility.yul\":943:950   */\n  dup5\n    /* \"#utility.yul\":939:962   */\n  sub\n    /* \"#utility.yul\":935:967   */\n  slt\n    /* \"#utility.yul\":932:1051   */\n  iszero\n  tag_27\n  jumpi\n    /* \"#utility.yul\":970:1049   */\n  tag_28\n  tag_8\n  jump\t// in\ntag_28:\n    /* \"#utility.yul\":932:1051   */\ntag_27:\n    /* \"#utility.yul\":1090:1091   */\n  0x00\n    /* \"#utility.yul\":1115:1179   */\n  tag_29\n    /* \"#utility.yul\":1171:1178   */\n  dup5\n    /* \"#utility.yul\":1162:1168   */\n  dup3\n    /* \"#utility.yul\":1151:1160   */\n  dup6\n    /* \"#utility.yul\":1147:1169   */\n  add\n    /* \"#utility.yul\":1115:1179   */\n  tag_13\n  jump\t// in\ntag_29:\n    /* \"#utility.yul\":1105:1179   */\n  swap2\n  pop\n    /* \"#utility.yul\":1061:1189   */\n  pop\n    /* \"#utility.yul\":845:1196   */\n  swap3\n  swap2\n  pop\n  pop\n  jump\t// out\n    /* \"LikeRewardManager.sol\":57:1008  contract LikeRewardManager {... */\ntag_6:\n  dataSize(sub_0)\n  dup1\n  dataOffset(sub_0)\n  0x00\n  codecopy\n  0x00\n  return\nstop\n\nsub_0: assembly {\n        /* \"LikeRewardManager.sol\":57:1008  contract LikeRewardManager {... */\n      mstore(0x40, 0x80)\n      callvalue\n      dup1\n      iszero\n      tag_1\n      jumpi\n      0x00\n      dup1\n      revert\n    tag_1:\n      pop\n      jumpi(tag_2, lt(calldatasize, 0x04))\n      shr(0xe0, calldataload(0x00))\n      dup1\n      0x6f97fe81\n      eq\n      tag_3\n      jumpi\n    tag_2:\n      0x00\n      dup1\n      revert\n        /* \"LikeRewardManager.sol\":610:1006  function sendRewards(address payable recipient, uint numberOfLikes, uint rewardPerLike) public adminOnly {... */\n    tag_3:\n      tag_4\n      0x04\n      dup1\n      calldatasize\n      sub\n      dup2\n      add\n      swap1\n      tag_5\n      swap2\n      swap1\n      tag_6\n      jump\t// in\n    tag_5:\n      tag_7\n      jump\t// in\n    tag_4:\n      stop\n    tag_7:\n        /* \"LikeRewardManager.sol\":322:335  administrator */\n      0x00\n      dup1\n      sload\n      swap1\n      0x0100\n      exp\n      swap1\n      div\n      0xffffffffffffffffffffffffffffffffffffffff\n      and\n        /* \"LikeRewardManager.sol\":308:335  msg.sender == administrator */\n      0xffffffffffffffffffffffffffffffffffffffff\n      and\n        /* \"LikeRewardManager.sol\":308:318  msg.sender */\n      caller\n        /* \"LikeRewardManager.sol\":308:335  msg.sender == administrator */\n      0xffffffffffffffffffffffffffffffffffffffff\n      and\n      eq\n        /* \"LikeRewardManager.sol\":300:398  require(msg.sender == administrator, \"This function can only be called by contract administrator\") */\n      tag_9\n      jumpi\n      mload(0x40)\n      0x08c379a000000000000000000000000000000000000000000000000000000000\n      dup2\n      mstore\n      0x04\n      add\n      tag_10\n      swap1\n      tag_11\n      jump\t// in\n    tag_10:\n      mload(0x40)\n      dup1\n      swap2\n      sub\n      swap1\n      revert\n    tag_9:\n        /* \"LikeRewardManager.sol\":725:751  uint previousNumberOfLikes */\n      0x00\n        /* \"LikeRewardManager.sol\":754:785  likeAmountOnLastRewardWithdrawl */\n      0x01\n        /* \"LikeRewardManager.sol\":754:796  likeAmountOnLastRewardWithdrawl[recipient] */\n      0x00\n        /* \"LikeRewardManager.sol\":786:795  recipient */\n      dup6\n        /* \"LikeRewardManager.sol\":754:796  likeAmountOnLastRewardWithdrawl[recipient] */\n      0xffffffffffffffffffffffffffffffffffffffff\n      and\n      0xffffffffffffffffffffffffffffffffffffffff\n      and\n      dup2\n      mstore\n      0x20\n      add\n      swap1\n      dup2\n      mstore\n      0x20\n      add\n      0x00\n      keccak256\n      sload\n        /* \"LikeRewardManager.sol\":725:796  uint previousNumberOfLikes = likeAmountOnLastRewardWithdrawl[recipient] */\n      swap1\n      pop\n        /* \"LikeRewardManager.sol\":851:864  numberOfLikes */\n      dup3\n        /* \"LikeRewardManager.sol\":806:837  likeAmountOnLastRewardWithdrawl */\n      0x01\n        /* \"LikeRewardManager.sol\":806:848  likeAmountOnLastRewardWithdrawl[recipient] */\n      0x00\n        /* \"LikeRewardManager.sol\":838:847  recipient */\n      dup7\n        /* \"LikeRewardManager.sol\":806:848  likeAmountOnLastRewardWithdrawl[recipient] */\n      0xffffffffffffffffffffffffffffffffffffffff\n      and\n      0xffffffffffffffffffffffffffffffffffffffff\n      and\n      dup2\n      mstore\n      0x20\n      add\n      swap1\n      dup2\n      mstore\n      0x20\n      add\n      0x00\n      keccak256\n        /* \"LikeRewardManager.sol\":806:864  likeAmountOnLastRewardWithdrawl[recipient] = numberOfLikes */\n      dup2\n      swap1\n      sstore\n      pop\n        /* \"LikeRewardManager.sol\":883:899  uint totalReward */\n      0x00\n        /* \"LikeRewardManager.sol\":935:956  previousNumberOfLikes */\n      dup2\n        /* \"LikeRewardManager.sol\":919:932  numberOfLikes */\n      dup5\n        /* \"LikeRewardManager.sol\":919:956  numberOfLikes - previousNumberOfLikes */\n      tag_13\n      swap2\n      swap1\n      tag_14\n      jump\t// in\n    tag_13:\n        /* \"LikeRewardManager.sol\":902:915  rewardPerLike */\n      dup4\n        /* \"LikeRewardManager.sol\":902:957  rewardPerLike * (numberOfLikes - previousNumberOfLikes) */\n      tag_15\n      swap2\n      swap1\n      tag_16\n      jump\t// in\n    tag_15:\n        /* \"LikeRewardManager.sol\":883:957  uint totalReward = rewardPerLike * (numberOfLikes - previousNumberOfLikes) */\n      swap1\n      pop\n        /* \"LikeRewardManager.sol\":968:977  recipient */\n      dup5\n        /* \"LikeRewardManager.sol\":968:986  recipient.transfer */\n      0xffffffffffffffffffffffffffffffffffffffff\n      and\n        /* \"LikeRewardManager.sol\":968:999  recipient.transfer(totalReward) */\n      0x08fc\n        /* \"LikeRewardManager.sol\":987:998  totalReward */\n      dup3\n        /* \"LikeRewardManager.sol\":968:999  recipient.transfer(totalReward) */\n      swap1\n      dup2\n      iszero\n      mul\n      swap1\n      mload(0x40)\n      0x00\n      mload(0x40)\n      dup1\n      dup4\n      sub\n      dup2\n      dup6\n      dup9\n      dup9\n      call\n      swap4\n      pop\n      pop\n      pop\n      pop\n      iszero\n      dup1\n      iszero\n      tag_18\n      jumpi\n      returndatasize\n      0x00\n      dup1\n      returndatacopy\n      revert(0x00, returndatasize)\n    tag_18:\n      pop\n        /* \"LikeRewardManager.sol\":715:1006  {... */\n      pop\n      pop\n        /* \"LikeRewardManager.sol\":610:1006  function sendRewards(address payable recipient, uint numberOfLikes, uint rewardPerLike) public adminOnly {... */\n      pop\n      pop\n      pop\n      jump\t// out\n        /* \"#utility.yul\":88:205   */\n    tag_20:\n        /* \"#utility.yul\":197:198   */\n      0x00\n        /* \"#utility.yul\":194:195   */\n      dup1\n        /* \"#utility.yul\":187:199   */\n      revert\n        /* \"#utility.yul\":334:460   */\n    tag_22:\n        /* \"#utility.yul\":371:378   */\n      0x00\n        /* \"#utility.yul\":411:453   */\n      0xffffffffffffffffffffffffffffffffffffffff\n        /* \"#utility.yul\":404:409   */\n      dup3\n        /* \"#utility.yul\":400:454   */\n      and\n        /* \"#utility.yul\":389:454   */\n      swap1\n      pop\n        /* \"#utility.yul\":334:460   */\n      swap2\n      swap1\n      pop\n      jump\t// out\n        /* \"#utility.yul\":466:570   */\n    tag_23:\n        /* \"#utility.yul\":511:518   */\n      0x00\n        /* \"#utility.yul\":540:564   */\n      tag_39\n        /* \"#utility.yul\":558:563   */\n      dup3\n        /* \"#utility.yul\":540:564   */\n      tag_22\n      jump\t// in\n    tag_39:\n        /* \"#utility.yul\":529:564   */\n      swap1\n      pop\n        /* \"#utility.yul\":466:570   */\n      swap2\n      swap1\n      pop\n      jump\t// out\n        /* \"#utility.yul\":576:714   */\n    tag_24:\n        /* \"#utility.yul\":657:689   */\n      tag_41\n        /* \"#utility.yul\":683:688   */\n      dup2\n        /* \"#utility.yul\":657:689   */\n      tag_23\n      jump\t// in\n    tag_41:\n        /* \"#utility.yul\":650:655   */\n      dup2\n        /* \"#utility.yul\":647:690   */\n      eq\n        /* \"#utility.yul\":637:708   */\n      tag_42\n      jumpi\n        /* \"#utility.yul\":704:705   */\n      0x00\n        /* \"#utility.yul\":701:702   */\n      dup1\n        /* \"#utility.yul\":694:706   */\n      revert\n        /* \"#utility.yul\":637:708   */\n    tag_42:\n        /* \"#utility.yul\":576:714   */\n      pop\n      jump\t// out\n        /* \"#utility.yul\":720:875   */\n    tag_25:\n        /* \"#utility.yul\":774:779   */\n      0x00\n        /* \"#utility.yul\":812:818   */\n      dup2\n        /* \"#utility.yul\":799:819   */\n      calldataload\n        /* \"#utility.yul\":790:819   */\n      swap1\n      pop\n        /* \"#utility.yul\":828:869   */\n      tag_44\n        /* \"#utility.yul\":863:868   */\n      dup2\n        /* \"#utility.yul\":828:869   */\n      tag_24\n      jump\t// in\n    tag_44:\n        /* \"#utility.yul\":720:875   */\n      swap3\n      swap2\n      pop\n      pop\n      jump\t// out\n        /* \"#utility.yul\":881:958   */\n    tag_26:\n        /* \"#utility.yul\":918:925   */\n      0x00\n        /* \"#utility.yul\":947:952   */\n      dup2\n        /* \"#utility.yul\":936:952   */\n      swap1\n      pop\n        /* \"#utility.yul\":881:958   */\n      swap2\n      swap1\n      pop\n      jump\t// out\n        /* \"#utility.yul\":964:1086   */\n    tag_27:\n        /* \"#utility.yul\":1037:1061   */\n      tag_47\n        /* \"#utility.yul\":1055:1060   */\n      dup2\n        /* \"#utility.yul\":1037:1061   */\n      tag_26\n      jump\t// in\n    tag_47:\n        /* \"#utility.yul\":1030:1035   */\n      dup2\n        /* \"#utility.yul\":1027:1062   */\n      eq\n        /* \"#utility.yul\":1017:1080   */\n      tag_48\n      jumpi\n        /* \"#utility.yul\":1076:1077   */\n      0x00\n        /* \"#utility.yul\":1073:1074   */\n      dup1\n        /* \"#utility.yul\":1066:1078   */\n      revert\n        /* \"#utility.yul\":1017:1080   */\n    tag_48:\n        /* \"#utility.yul\":964:1086   */\n      pop\n      jump\t// out\n        /* \"#utility.yul\":1092:1231   */\n    tag_28:\n        /* \"#utility.yul\":1138:1143   */\n      0x00\n        /* \"#utility.yul\":1176:1182   */\n      dup2\n        /* \"#utility.yul\":1163:1183   */\n      calldataload\n        /* \"#utility.yul\":1154:1183   */\n      swap1\n      pop\n        /* \"#utility.yul\":1192:1225   */\n      tag_50\n        /* \"#utility.yul\":1219:1224   */\n      dup2\n        /* \"#utility.yul\":1192:1225   */\n      tag_27\n      jump\t// in\n    tag_50:\n        /* \"#utility.yul\":1092:1231   */\n      swap3\n      swap2\n      pop\n      pop\n      jump\t// out\n        /* \"#utility.yul\":1237:1872   */\n    tag_6:\n        /* \"#utility.yul\":1322:1328   */\n      0x00\n        /* \"#utility.yul\":1330:1336   */\n      dup1\n        /* \"#utility.yul\":1338:1344   */\n      0x00\n        /* \"#utility.yul\":1387:1389   */\n      0x60\n        /* \"#utility.yul\":1375:1384   */\n      dup5\n        /* \"#utility.yul\":1366:1373   */\n      dup7\n        /* \"#utility.yul\":1362:1385   */\n      sub\n        /* \"#utility.yul\":1358:1390   */\n      slt\n        /* \"#utility.yul\":1355:1474   */\n      iszero\n      tag_52\n      jumpi\n        /* \"#utility.yul\":1393:1472   */\n      tag_53\n      tag_20\n      jump\t// in\n    tag_53:\n        /* \"#utility.yul\":1355:1474   */\n    tag_52:\n        /* \"#utility.yul\":1513:1514   */\n      0x00\n        /* \"#utility.yul\":1538:1599   */\n      tag_54\n        /* \"#utility.yul\":1591:1598   */\n      dup7\n        /* \"#utility.yul\":1582:1588   */\n      dup3\n        /* \"#utility.yul\":1571:1580   */\n      dup8\n        /* \"#utility.yul\":1567:1589   */\n      add\n        /* \"#utility.yul\":1538:1599   */\n      tag_25\n      jump\t// in\n    tag_54:\n        /* \"#utility.yul\":1528:1599   */\n      swap4\n      pop\n        /* \"#utility.yul\":1484:1609   */\n      pop\n        /* \"#utility.yul\":1648:1650   */\n      0x20\n        /* \"#utility.yul\":1674:1727   */\n      tag_55\n        /* \"#utility.yul\":1719:1726   */\n      dup7\n        /* \"#utility.yul\":1710:1716   */\n      dup3\n        /* \"#utility.yul\":1699:1708   */\n      dup8\n        /* \"#utility.yul\":1695:1717   */\n      add\n        /* \"#utility.yul\":1674:1727   */\n      tag_28\n      jump\t// in\n    tag_55:\n        /* \"#utility.yul\":1664:1727   */\n      swap3\n      pop\n        /* \"#utility.yul\":1619:1737   */\n      pop\n        /* \"#utility.yul\":1776:1778   */\n      0x40\n        /* \"#utility.yul\":1802:1855   */\n      tag_56\n        /* \"#utility.yul\":1847:1854   */\n      dup7\n        /* \"#utility.yul\":1838:1844   */\n      dup3\n        /* \"#utility.yul\":1827:1836   */\n      dup8\n        /* \"#utility.yul\":1823:1845   */\n      add\n        /* \"#utility.yul\":1802:1855   */\n      tag_28\n      jump\t// in\n    tag_56:\n        /* \"#utility.yul\":1792:1855   */\n      swap2\n      pop\n        /* \"#utility.yul\":1747:1865   */\n      pop\n        /* \"#utility.yul\":1237:1872   */\n      swap3\n      pop\n      swap3\n      pop\n      swap3\n      jump\t// out\n        /* \"#utility.yul\":1878:2047   */\n    tag_29:\n        /* \"#utility.yul\":1962:1973   */\n      0x00\n        /* \"#utility.yul\":1996:2002   */\n      dup3\n        /* \"#utility.yul\":1991:1994   */\n      dup3\n        /* \"#utility.yul\":1984:2003   */\n      mstore\n        /* \"#utility.yul\":2036:2040   */\n      0x20\n        /* \"#utility.yul\":2031:2034   */\n      dup3\n        /* \"#utility.yul\":2027:2041   */\n      add\n        /* \"#utility.yul\":2012:2041   */\n      swap1\n      pop\n        /* \"#utility.yul\":1878:2047   */\n      swap3\n      swap2\n      pop\n      pop\n      jump\t// out\n        /* \"#utility.yul\":2053:2298   */\n    tag_30:\n        /* \"#utility.yul\":2193:2227   */\n      0x546869732066756e6374696f6e2063616e206f6e6c792062652063616c6c6564\n        /* \"#utility.yul\":2189:2190   */\n      0x00\n        /* \"#utility.yul\":2181:2187   */\n      dup3\n        /* \"#utility.yul\":2177:2191   */\n      add\n        /* \"#utility.yul\":2170:2228   */\n      mstore\n        /* \"#utility.yul\":2262:2290   */\n      0x20627920636f6e74726163742061646d696e6973747261746f72000000000000\n        /* \"#utility.yul\":2257:2259   */\n      0x20\n        /* \"#utility.yul\":2249:2255   */\n      dup3\n        /* \"#utility.yul\":2245:2260   */\n      add\n        /* \"#utility.yul\":2238:2291   */\n      mstore\n        /* \"#utility.yul\":2053:2298   */\n      pop\n      jump\t// out\n        /* \"#utility.yul\":2304:2670   */\n    tag_31:\n        /* \"#utility.yul\":2446:2449   */\n      0x00\n        /* \"#utility.yul\":2467:2534   */\n      tag_60\n        /* \"#utility.yul\":2531:2533   */\n      0x3a\n        /* \"#utility.yul\":2526:2529   */\n      dup4\n        /* \"#utility.yul\":2467:2534   */\n      tag_29\n      jump\t// in\n    tag_60:\n        /* \"#utility.yul\":2460:2534   */\n      swap2\n      pop\n        /* \"#utility.yul\":2543:2636   */\n      tag_61\n        /* \"#utility.yul\":2632:2635   */\n      dup3\n        /* \"#utility.yul\":2543:2636   */\n      tag_30\n      jump\t// in\n    tag_61:\n        /* \"#utility.yul\":2661:2663   */\n      0x40\n        /* \"#utility.yul\":2656:2659   */\n      dup3\n        /* \"#utility.yul\":2652:2664   */\n      add\n        /* \"#utility.yul\":2645:2664   */\n      swap1\n      pop\n        /* \"#utility.yul\":2304:2670   */\n      swap2\n      swap1\n      pop\n      jump\t// out\n        /* \"#utility.yul\":2676:3095   */\n    tag_11:\n        /* \"#utility.yul\":2842:2846   */\n      0x00\n        /* \"#utility.yul\":2880:2882   */\n      0x20\n        /* \"#utility.yul\":2869:2878   */\n      dup3\n        /* \"#utility.yul\":2865:2883   */\n      add\n        /* \"#utility.yul\":2857:2883   */\n      swap1\n      pop\n        /* \"#utility.yul\":2929:2938   */\n      dup2\n        /* \"#utility.yul\":2923:2927   */\n      dup2\n        /* \"#utility.yul\":2919:2939   */\n      sub\n        /* \"#utility.yul\":2915:2916   */\n      0x00\n        /* \"#utility.yul\":2904:2913   */\n      dup4\n        /* \"#utility.yul\":2900:2917   */\n      add\n        /* \"#utility.yul\":2893:2940   */\n      mstore\n        /* \"#utility.yul\":2957:3088   */\n      tag_63\n        /* \"#utility.yul\":3083:3087   */\n      dup2\n        /* \"#utility.yul\":2957:3088   */\n      tag_31\n      jump\t// in\n    tag_63:\n        /* \"#utility.yul\":2949:3088   */\n      swap1\n      pop\n        /* \"#utility.yul\":2676:3095   */\n      swap2\n      swap1\n      pop\n      jump\t// out\n        /* \"#utility.yul\":3101:3281   */\n    tag_32:\n        /* \"#utility.yul\":3149:3226   */\n      0x4e487b7100000000000000000000000000000000000000000000000000000000\n        /* \"#utility.yul\":3146:3147   */\n      0x00\n        /* \"#utility.yul\":3139:3227   */\n      mstore\n        /* \"#utility.yul\":3246:3250   */\n      0x11\n        /* \"#utility.yul\":3243:3244   */\n      0x04\n        /* \"#utility.yul\":3236:3251   */\n      mstore\n        /* \"#utility.yul\":3270:3274   */\n      0x24\n        /* \"#utility.yul\":3267:3268   */\n      0x00\n        /* \"#utility.yul\":3260:3275   */\n      revert\n        /* \"#utility.yul\":3287:3478   */\n    tag_14:\n        /* \"#utility.yul\":3327:3331   */\n      0x00\n        /* \"#utility.yul\":3347:3367   */\n      tag_66\n        /* \"#utility.yul\":3365:3366   */\n      dup3\n        /* \"#utility.yul\":3347:3367   */\n      tag_26\n      jump\t// in\n    tag_66:\n        /* \"#utility.yul\":3342:3367   */\n      swap2\n      pop\n        /* \"#utility.yul\":3381:3401   */\n      tag_67\n        /* \"#utility.yul\":3399:3400   */\n      dup4\n        /* \"#utility.yul\":3381:3401   */\n      tag_26\n      jump\t// in\n    tag_67:\n        /* \"#utility.yul\":3376:3401   */\n      swap3\n      pop\n        /* \"#utility.yul\":3420:3421   */\n      dup3\n        /* \"#utility.yul\":3417:3418   */\n      dup3\n        /* \"#utility.yul\":3414:3422   */\n      lt\n        /* \"#utility.yul\":3411:3445   */\n      iszero\n      tag_68\n      jumpi\n        /* \"#utility.yul\":3425:3443   */\n      tag_69\n      tag_32\n      jump\t// in\n    tag_69:\n        /* \"#utility.yul\":3411:3445   */\n    tag_68:\n        /* \"#utility.yul\":3470:3471   */\n      dup3\n        /* \"#utility.yul\":3467:3468   */\n      dup3\n        /* \"#utility.yul\":3463:3472   */\n      sub\n        /* \"#utility.yul\":3455:3472   */\n      swap1\n      pop\n        /* \"#utility.yul\":3287:3478   */\n      swap3\n      swap2\n      pop\n      pop\n      jump\t// out\n        /* \"#utility.yul\":3484:3832   */\n    tag_16:\n        /* \"#utility.yul\":3524:3531   */\n      0x00\n        /* \"#utility.yul\":3547:3567   */\n      tag_71\n        /* \"#utility.yul\":3565:3566   */\n      dup3\n        /* \"#utility.yul\":3547:3567   */\n      tag_26\n      jump\t// in\n    tag_71:\n        /* \"#utility.yul\":3542:3567   */\n      swap2\n      pop\n        /* \"#utility.yul\":3581:3601   */\n      tag_72\n        /* \"#utility.yul\":3599:3600   */\n      dup4\n        /* \"#utility.yul\":3581:3601   */\n      tag_26\n      jump\t// in\n    tag_72:\n        /* \"#utility.yul\":3576:3601   */\n      swap3\n      pop\n        /* \"#utility.yul\":3769:3770   */\n      dup2\n        /* \"#utility.yul\":3701:3767   */\n      0xffffffffffffffffffffffffffffffffffffffffffffffffffffffffffffffff\n        /* \"#utility.yul\":3697:3771   */\n      div\n        /* \"#utility.yul\":3694:3695   */\n      dup4\n        /* \"#utility.yul\":3691:3772   */\n      gt\n        /* \"#utility.yul\":3686:3687   */\n      dup3\n        /* \"#utility.yul\":3679:3688   */\n      iszero\n        /* \"#utility.yul\":3672:3689   */\n      iszero\n        /* \"#utility.yul\":3668:3773   */\n      and\n        /* \"#utility.yul\":3665:3796   */\n      iszero\n      tag_73\n      jumpi\n        /* \"#utility.yul\":3776:3794   */\n      tag_74\n      tag_32\n      jump\t// in\n    tag_74:\n        /* \"#utility.yul\":3665:3796   */\n    tag_73:\n        /* \"#utility.yul\":3824:3825   */\n      dup3\n        /* \"#utility.yul\":3821:3822   */\n      dup3\n        /* \"#utility.yul\":3817:3826   */\n      mul\n        /* \"#utility.yul\":3806:3826   */\n      swap1\n      pop\n        /* \"#utility.yul\":3484:3832   */\n      swap3\n      swap2\n      pop\n      pop\n      jump\t// out\n\n    auxdata: 0xa26469706673582212204b4b4fb37368a82bc67a73454ca43b4a36a141e379a15a6b472402e68602809a64736f6c634300080e0033\n}\n","bytecode":{"linkReferences":{},"object":"608060405234801561001057600080fd5b50604051610564380380610564833981810160405281019061003291906100db565b806000806101000a81548173ffffffffffffffffffffffffffffffffffffffff021916908373ffffffffffffffffffffffffffffffffffffffff16021790555050610108565b600080fd5b600073ffffffffffffffffffffffffffffffffffffffff82169050919050565b60006100a88261007d565b9050919050565b6100b88161009d565b81146100c357600080fd5b50565b6000815190506100d5816100af565b92915050565b6000602082840312156100f1576100f0610078565b5b60006100ff848285016100c6565b91505092915050565b61044d806101176000396000f3fe608060405234801561001057600080fd5b506004361061002b5760003560e01c80636f97fe8114610030575b600080fd5b61004a60048036038101906100459190610264565b61004c565b005b60008054906101000a900473ffffffffffffffffffffffffffffffffffffffff1673ffffffffffffffffffffffffffffffffffffffff163373ffffffffffffffffffffffffffffffffffffffff16146100da576040517f08c379a00000000000000000000000000000000000000000000000000000000081526004016100d19061033a565b60405180910390fd5b6000600160008573ffffffffffffffffffffffffffffffffffffffff1673ffffffffffffffffffffffffffffffffffffffff16815260200190815260200160002054905082600160008673ffffffffffffffffffffffffffffffffffffffff1673ffffffffffffffffffffffffffffffffffffffff16815260200190815260200160002081905550600081846101709190610389565b8361017b91906103bd565b90508473ffffffffffffffffffffffffffffffffffffffff166108fc829081150290604051600060405180830381858888f193505050501580156101c3573d6000803e3d6000fd5b505050505050565b600080fd5b600073ffffffffffffffffffffffffffffffffffffffff82169050919050565b60006101fb826101d0565b9050919050565b61020b816101f0565b811461021657600080fd5b50565b60008135905061022881610202565b92915050565b6000819050919050565b6102418161022e565b811461024c57600080fd5b50565b60008135905061025e81610238565b92915050565b60008060006060848603121561027d5761027c6101cb565b5b600061028b86828701610219565b935050602061029c8682870161024f565b92505060406102ad8682870161024f565b9150509250925092565b600082825260208201905092915050565b7f546869732066756e6374696f6e2063616e206f6e6c792062652063616c6c656460008201527f20627920636f6e74726163742061646d696e6973747261746f72000000000000602082015250565b6000610324603a836102b7565b915061032f826102c8565b604082019050919050565b6000602082019050818103600083015261035381610317565b9050919050565b7f4e487b7100000000000000000000000000000000000000000000000000000000600052601160045260246000fd5b60006103948261022e565b915061039f8361022e565b9250828210156103b2576103b161035a565b5b828203905092915050565b60006103c88261022e565b91506103d38361022e565b9250817fffffffffffffffffffffffffffffffffffffffffffffffffffffffffffffffff048311821515161561040c5761040b61035a565b5b82820290509291505056fea26469706673582212204b4b4fb37368a82bc67a73454ca43b4a36a141e379a15a6b472402e68602809a64736f6c634300080e0033","opcodes":"PUSH1 0x80 PUSH1 0x40 MSTORE CALLVALUE DUP1 ISZERO PUSH2 0x10 JUMPI PUSH1 0x0 DUP1 REVERT JUMPDEST POP PUSH1 0x40 MLOAD PUSH2 0x564 CODESIZE SUB DUP1 PUSH2 0x564 DUP4 CODECOPY DUP2 DUP2 ADD PUSH1 0x40 MSTORE DUP2 ADD SWAP1 PUSH2 0x32 SWAP2 SWAP1 PUSH2 0xDB JUMP JUMPDEST DUP1 PUSH1 0x0 DUP1 PUSH2 0x100 EXP DUP2 SLOAD DUP2 PUSH20 0xFFFFFFFFFFFFFFFFFFFFFFFFFFFFFFFFFFFFFFFF MUL NOT AND SWAP1 DUP4 PUSH20 0xFFFFFFFFFFFFFFFFFFFFFFFFFFFFFFFFFFFFFFFF AND MUL OR SWAP1 SSTORE POP POP PUSH2 0x108 JUMP JUMPDEST PUSH1 0x0 DUP1 REVERT JUMPDEST PUSH1 0x0 PUSH20 0xFFFFFFFFFFFFFFFFFFFFFFFFFFFFFFFFFFFFFFFF DUP3 AND SWAP1 POP SWAP2 SWAP1 POP JUMP JUMPDEST PUSH1 0x0 PUSH2 0xA8 DUP3 PUSH2 0x7D JUMP JUMPDEST SWAP1 POP SWAP2 SWAP1 POP JUMP JUMPDEST PUSH2 0xB8 DUP2 PUSH2 0x9D JUMP JUMPDEST DUP2 EQ PUSH2 0xC3 JUMPI PUSH1 0x0 DUP1 REVERT JUMPDEST POP JUMP JUMPDEST PUSH1 0x0 DUP2 MLOAD SWAP1 POP PUSH2 0xD5 DUP2 PUSH2 0xAF JUMP JUMPDEST SWAP3 SWAP2 POP POP JUMP JUMPDEST PUSH1 0x0 PUSH1 0x20 DUP3 DUP5 SUB SLT ISZERO PUSH2 0xF1 JUMPI PUSH2 0xF0 PUSH2 0x78 JUMP JUMPDEST JUMPDEST PUSH1 0x0 PUSH2 0xFF DUP5 DUP3 DUP6 ADD PUSH2 0xC6 JUMP JUMPDEST SWAP2 POP POP SWAP3 SWAP2 POP POP JUMP JUMPDEST PUSH2 0x44D DUP1 PUSH2 0x117 PUSH1 0x0 CODECOPY PUSH1 0x0 RETURN INVALID PUSH1 0x80 PUSH1 0x40 MSTORE CALLVALUE DUP1 ISZERO PUSH2 0x10 JUMPI PUSH1 0x0 DUP1 REVERT JUMPDEST POP PUSH1 0x4 CALLDATASIZE LT PUSH2 0x2B JUMPI PUSH1 0x0 CALLDATALOAD PUSH1 0xE0 SHR DUP1 PUSH4 0x6F97FE81 EQ PUSH2 0x30 JUMPI JUMPDEST PUSH1 0x0 DUP1 REVERT JUMPDEST PUSH2 0x4A PUSH1 0x4 DUP1 CALLDATASIZE SUB DUP2 ADD SWAP1 PUSH2 0x45 SWAP2 SWAP1 PUSH2 0x264 JUMP JUMPDEST PUSH2 0x4C JUMP JUMPDEST STOP JUMPDEST PUSH1 0x0 DUP1 SLOAD SWAP1 PUSH2 0x100 EXP SWAP1 DIV PUSH20 0xFFFFFFFFFFFFFFFFFFFFFFFFFFFFFFFFFFFFFFFF AND PUSH20 0xFFFFFFFFFFFFFFFFFFFFFFFFFFFFFFFFFFFFFFFF AND CALLER PUSH20 0xFFFFFFFFFFFFFFFFFFFFFFFFFFFFFFFFFFFFFFFF AND EQ PUSH2 0xDA JUMPI PUSH1 0x40 MLOAD PUSH32 0x8C379A000000000000000000000000000000000000000000000000000000000 DUP2 MSTORE PUSH1 0x4 ADD PUSH2 0xD1 SWAP1 PUSH2 0x33A JUMP JUMPDEST PUSH1 0x40 MLOAD DUP1 SWAP2 SUB SWAP1 REVERT JUMPDEST PUSH1 0x0 PUSH1 0x1 PUSH1 0x0 DUP6 PUSH20 0xFFFFFFFFFFFFFFFFFFFFFFFFFFFFFFFFFFFFFFFF AND PUSH20 0xFFFFFFFFFFFFFFFFFFFFFFFFFFFFFFFFFFFFFFFF AND DUP2 MSTORE PUSH1 0x20 ADD SWAP1 DUP2 MSTORE PUSH1 0x20 ADD PUSH1 0x0 KECCAK256 SLOAD SWAP1 POP DUP3 PUSH1 0x1 PUSH1 0x0 DUP7 PUSH20 0xFFFFFFFFFFFFFFFFFFFFFFFFFFFFFFFFFFFFFFFF AND PUSH20 0xFFFFFFFFFFFFFFFFFFFFFFFFFFFFFFFFFFFFFFFF AND DUP2 MSTORE PUSH1 0x20 ADD SWAP1 DUP2 MSTORE PUSH1 0x20 ADD PUSH1 0x0 KECCAK256 DUP2 SWAP1 SSTORE POP PUSH1 0x0 DUP2 DUP5 PUSH2 0x170 SWAP2 SWAP1 PUSH2 0x389 JUMP JUMPDEST DUP4 PUSH2 0x17B SWAP2 SWAP1 PUSH2 0x3BD JUMP JUMPDEST SWAP1 POP DUP5 PUSH20 0xFFFFFFFFFFFFFFFFFFFFFFFFFFFFFFFFFFFFFFFF AND PUSH2 0x8FC DUP3 SWAP1 DUP2 ISZERO MUL SWAP1 PUSH1 0x40 MLOAD PUSH1 0x0 PUSH1 0x40 MLOAD DUP1 DUP4 SUB DUP2 DUP6 DUP9 DUP9 CALL SWAP4 POP POP POP POP ISZERO DUP1 ISZERO PUSH2 0x1C3 JUMPI RETURNDATASIZE PUSH1 0x0 DUP1 RETURNDATACOPY RETURNDATASIZE PUSH1 0x0 REVERT JUMPDEST POP POP POP POP POP POP JUMP JUMPDEST PUSH1 0x0 DUP1 REVERT JUMPDEST PUSH1 0x0 PUSH20 0xFFFFFFFFFFFFFFFFFFFFFFFFFFFFFFFFFFFFFFFF DUP3 AND SWAP1 POP SWAP2 SWAP1 POP JUMP JUMPDEST PUSH1 0x0 PUSH2 0x1FB DUP3 PUSH2 0x1D0 JUMP JUMPDEST SWAP1 POP SWAP2 SWAP1 POP JUMP JUMPDEST PUSH2 0x20B DUP2 PUSH2 0x1F0 JUMP JUMPDEST DUP2 EQ PUSH2 0x216 JUMPI PUSH1 0x0 DUP1 REVERT JUMPDEST POP JUMP JUMPDEST PUSH1 0x0 DUP2 CALLDATALOAD SWAP1 POP PUSH2 0x228 DUP2 PUSH2 0x202 JUMP JUMPDEST SWAP3 SWAP2 POP POP JUMP JUMPDEST PUSH1 0x0 DUP2 SWAP1 POP SWAP2 SWAP1 POP JUMP JUMPDEST PUSH2 0x241 DUP2 PUSH2 0x22E JUMP JUMPDEST DUP2 EQ PUSH2 0x24C JUMPI PUSH1 0x0 DUP1 REVERT JUMPDEST POP JUMP JUMPDEST PUSH1 0x0 DUP2 CALLDATALOAD SWAP1 POP PUSH2 0x25E DUP2 PUSH2 0x238 JUMP JUMPDEST SWAP3 SWAP2 POP POP JUMP JUMPDEST PUSH1 0x0 DUP1 PUSH1 0x0 PUSH1 0x60 DUP5 DUP7 SUB SLT ISZERO PUSH2 0x27D JUMPI PUSH2 0x27C PUSH2 0x1CB JUMP JUMPDEST JUMPDEST PUSH1 0x0 PUSH2 0x28B DUP7 DUP3 DUP8 ADD PUSH2 0x219 JUMP JUMPDEST SWAP4 POP POP PUSH1 0x20 PUSH2 0x29C DUP7 DUP3 DUP8 ADD PUSH2 0x24F JUMP JUMPDEST SWAP3 POP POP PUSH1 0x40 PUSH2 0x2AD DUP7 DUP3 DUP8 ADD PUSH2 0x24F JUMP JUMPDEST SWAP2 POP POP SWAP3 POP SWAP3 POP SWAP3 JUMP JUMPDEST PUSH1 0x0 DUP3 DUP3 MSTORE PUSH1 0x20 DUP3 ADD SWAP1 POP SWAP3 SWAP2 POP POP JUMP JUMPDEST PUSH32 0x546869732066756E6374696F6E2063616E206F6E6C792062652063616C6C6564 PUSH1 0x0 DUP3 ADD MSTORE PUSH32 0x20627920636F6E74726163742061646D696E6973747261746F72000000000000 PUSH1 0x20 DUP3 ADD MSTORE POP JUMP JUMPDEST PUSH1 0x0 PUSH2 0x324 PUSH1 0x3A DUP4 PUSH2 0x2B7 JUMP JUMPDEST SWAP2 POP PUSH2 0x32F DUP3 PUSH2 0x2C8 JUMP JUMPDEST PUSH1 0x40 DUP3 ADD SWAP1 POP SWAP2 SWAP1 POP JUMP JUMPDEST PUSH1 0x0 PUSH1 0x20 DUP3 ADD SWAP1 POP DUP2 DUP2 SUB PUSH1 0x0 DUP4 ADD MSTORE PUSH2 0x353 DUP2 PUSH2 0x317 JUMP JUMPDEST SWAP1 POP SWAP2 SWAP1 POP JUMP JUMPDEST PUSH32 0x4E487B7100000000000000000000000000000000000000000000000000000000 PUSH1 0x0 MSTORE PUSH1 0x11 PUSH1 0x4 MSTORE PUSH1 0x24 PUSH1 0x0 REVERT JUMPDEST PUSH1 0x0 PUSH2 0x394 DUP3 PUSH2 0x22E JUMP JUMPDEST SWAP2 POP PUSH2 0x39F DUP4 PUSH2 0x22E JUMP JUMPDEST SWAP3 POP DUP3 DUP3 LT ISZERO PUSH2 0x3B2 JUMPI PUSH2 0x3B1 PUSH2 0x35A JUMP JUMPDEST JUMPDEST DUP3 DUP3 SUB SWAP1 POP SWAP3 SWAP2 POP POP JUMP JUMPDEST PUSH1 0x0 PUSH2 0x3C8 DUP3 PUSH2 0x22E JUMP JUMPDEST SWAP2 POP PUSH2 0x3D3 DUP4 PUSH2 0x22E JUMP JUMPDEST SWAP3 POP DUP2 PUSH32 0xFFFFFFFFFFFFFFFFFFFFFFFFFFFFFFFFFFFFFFFFFFFFFFFFFFFFFFFFFFFFFFFF DIV DUP4 GT DUP3 ISZERO ISZERO AND ISZERO PUSH2 0x40C JUMPI PUSH2 0x40B PUSH2 0x35A JUMP JUMPDEST JUMPDEST DUP3 DUP3 MUL SWAP1 POP SWAP3 SWAP2 POP POP JUMP INVALID LOG2 PUSH5 0x6970667358 0x22 SLT KECCAK256 0x4B 0x4B 0x4F 0xB3 PUSH20 0x68A82BC67A73454CA43B4A36A141E379A15A6B47 0x24 MUL 0xE6 DUP7 MUL DUP1 SWAP11 PUSH5 0x736F6C6343 STOP ADDMOD 0xE STOP CALLER "},"gasEstimates":{"creation":{"codeDepositCost":"220200","executionCost":"infinite","totalCost":"infinite"},"external":{"sendRewards(address,uint256,uint256)":"infinite"}},"methodIdentifiers":{"sendRewards(address,uint256,uint256)":"6f97fe81"}},"storageLayout":{"storage":[{"astId":3,"contract":"LikeRewardManager.sol:LikeRewardManager","label":"administrator","offset":0,"slot":"0","type":"t_address"},{"astId":7,"contract":"LikeRewardManager.sol:LikeRewardManager","label":"likeAmountOnLastRewardWithdrawl","offset":0,"slot":"1","type":"t_mapping(t_address,t_uint256)"}],"types":{"t_address":{"encoding":"inplace","label":"address","numberOfBytes":"20"},"t_mapping(t_address,t_uint256)":{"encoding":"mapping","key":"t_address","label":"mapping(address => uint256)","numberOfBytes":"32","value":"t_uint256"},"t_uint256":{"encoding":"inplace","label":"uint256","numberOfBytes":"32"}}},"userdoc":{"kind":"user","methods":{},"version":1}}